:0420000087EF20F056
:08200800046ED8CF05F0E0CF13
:1020100006F00001E9CF0CF0EACF07F0E1CF08F0BD
:10202000E2CF09F0D9CF0AF0DACF0BF0F3CF12F0FC
:10203000F4CF13F0FACF14F0F5CF15F0F6CF16F079
:10204000F7CF17F000C00EF001C00FF002C010F083
:1020500003C011F0F2AA30EF10F0F2B437EF12F033
:10206000F2A836EF10F0F2B283EF12F0F0A63CEFD8
:1020700010F0F0B08BEF12F0F2A642EF10F0F2B0D9
:102080008CEF10F00EC000F00FC001F010C002F095
:1020900011C003F00CC0E9FF07C0EAFF078E08C0BB
:1020A000E1FF09C0E2FF0AC0D9FF0BC0DAFF12C08E
:1020B000F3FF13C0F4FF14C0FAFF15C0F5FF16C0FC
:1020C000F6FF17C0F7FF045006C0E0FF05C0D8FFB9
:1020D00010000900F6CF55F0F7CF56F0F5509EA846
:1020E000FED7AD6E55C0F6FF56C0F7FF542EF1D7A0
:1020F0001200EA6A5B0EE96EEF500DE0060E016E0B
:10210000006A002EFED7012EFBD77B0E006E002E3C
:10211000FED7EF2EF3D7120093948A9493968A8673
:1021200093988A88938A81BA02D0310E2B6E938C51
:1021300081BC02D0320E2B6E938E81BE02D0330E44
:102140002B6E93948A8493968A9693988A88938A1E
:1021500081BA02D0340E2B6E938C81BC02D0350E26
:102160002B6E938E81BE02D0360E2B6E93948A8492
:1021700093968A8693988A98938A81BA02D0370E6A
:102180002B6E938C81BC02D0380E2B6E938E81BE49
:1021900002D0390E2B6EE20EF66E210EF76E070E90
:1021A000546E97DF2B509EA8FED7AD6E0D0E9EA8E5
:1021B000FED7AD6E0A0E9EA8FED7AD6E040E546E0D
:1021C000FA0E5B6E96DF542EFBD793688150246E17
:1021D00093948A9493968A9693988A98F29042EF71
:1021E00010F05465636C613D2025630D0A0062396F
:1021F000F00B006E0F0E8C1400108C6E00008C80A3
:10220000020E006E002EFED700D000008C9012004F
:102210008350006E00380F0B016E12000F0E9514E4
:10222000F009956E8C8400008C800000F1DF01C005
:1022300062F08C9000008C8000D000D00000E8DFBD
:1022400001C061F08C900F0E9514956E6239006E8E
:10225000F00E001600506111016E120095909592DB
:1022600095948C92DBDF01C061F001BEFBD78C92AC
:102270005FB08C8200008C9400008C906039616F9C
:102280000F0E611761C062F0B2DF60510F0B616F1A
:10229000626FADDF1200280E556E0C0E566E010EE9
:1022A000576E060E586E8C908C928C940F0E95146F
:1022B000956E9590959295940F0E5B6E1ADF010EB8
:1022C000546E5450030808E3030E626F90DF050E4E
:1022D0005B6E0FDF542AF5D7020E626F88DF050EA2
:1022E0005B6E07DF546A545003080FE3036A5450CF
:1022F000550FE96E000E0320EA6EEFCF59F05F6ACA
:1023000059C060F0ABDF542AEED712005C2C01D02C
:1023100003D0400E5D6E01D05D6A010E5B5C5D26F0
:102320005D5080095E6E5F6A606F98DF12005A50E0
:10233000070A07E00B0A0AE0060A10E0020A14E0A6
:1023400018D0010E5B6E5C6EE1DF18D05F6A010E83
:10235000606F84DF020E5B6ECCDE10D0010E5B6E10
:10236000020E5C6ED3DF0AD05F6A100E606F76DFFC
:1023700005D0010E5F6E5AC060F070DF12000900D8
:10238000F6CF55F0F7CF56F0F5CF5AF0D0DF55C065
:10239000F6FF56C0F7FF542EF2D712005B50016AC9
:1023A0005A5C03E25AC000F00CD0006A080E5C6E62
:1023B0005A3600365B50005CD8B0006E01365C2E99
:1023C000F7D71200200E55A8300E566E54C000F0FC
:1023D00054AE08D0001E002A00C054F02D0E566ED8
:1023E000558E5580015054C05AF0640E5B6ED6DF96
:1023F00000C054F0300E0124576E54C05AF00A0E3B
:102400005B6ECCDF300E0024596E300E0124586E06
:1024100056C000F0300E575C04E0558255BE55841E
:1024200012D056C057F0200E566E300E585C04E0A5
:10243000558055BE558207D0D8A4558004E157C0B9
:1024400058F0200E576E55B405D055B206D055B091
:1024500007D009D056C05AF06ADF57C05AF067DF7C
:1024600058C05AF064DF59C05AF061DF12003C0EC8
:10247000D76EB00ED66E010E25262550040837E221
:10248000256A272A27503C080BE1276A282A28506A
:102490003C0806E1286A292A2950180801E1296A1E
:1024A000FADE020E5B6E5C6E31DFF40EF66E240E09
:1024B000F76E070E546E63DF29C054F0180E556E88
:1024C00081DF200E5A6E33DF3A0E5A6E30DF28C09D
:1024D00054F0180E556E76DF200E5A6E28DF3A0E35
:1024E0005A6E25DF27C054F0180E556E6BDFF2943C
:1024F00042EF10F00C52656C6F6A202564203A257B
:1025000064203A256400292A2950180801E1296A23
:10251000F29242EF10F0282A28503C0802E2286A82
:10252000292AF09042EF10F00D0A494E53545255AB
:102530004D454E54524143494F4E2E0D00000D0A59
:10254000312D4F7063696F6E20312028496E76659A
:10255000726E616465726F290D000D0A322E2D4F67
:102560007063696F6E20322028436F6E74726F6CD7
:10257000206D616E75616C20696E7665726E616446
:1025800065726F290D000D0A332E2D4F7063696F30
:102590006E2033202852656C6F6A29000D0A456C45
:1025A000696765206C61206F7063696F6E2071755B
:1025B000652064656365657320000D0A494E5354B8
:1025C00052554D454E544143494F4E0D00000D0AA2
:1025D000312E2D4F7063696F6E20312028496E7641
:1025E00065726E616465726F290D00000D0A322EEE
:1025F0002D4F7063696F6E20322028436F6E7472A6
:102600006F6C206D616E75616C20696E7665726E9F
:10261000616465726F290D000D0A332E2D4F7063B2
:10262000696F6E2033202852656C6F6A29000D0A8D
:10263000456C696765206C61206F7063696F6E20FF
:102640007175652064656365657320004772616418
:102650006F733D20252E31660D00477261646F73E4
:102660003D20252E31660D0048756D656461643D21
:1026700020252E31660D000048756D656461643D4E
:1026800020252E31660D0000477261646F733D2076
:10269000252E31660D00477261646F733D20252E33
:1026A00031660D0048756D656461643D20252E31ED
:1026B000660D000048756D656461643D20252E310E
:1026C000660D0000477261646F733D20252E3166F0
:1026D0000D00477261646F733D20252E31660D0039
:1026E00048756D656461643D20252E31660D0000DE
:1026F00048756D656461643D20252E31660D0000CE
:10270000477261646F733D20252E31660D0047725C
:1027100061646F733D20252E31660D0048756D652F
:102720006461643D20252E31660D000048756D659D
:102730006461643D20252E31660D00000A0D434F73
:102740004E54524F4C204D414E55414C20494E560F
:1027500045524E414445524F00000A0D2031292078
:1027600056656E74696C61646F7200000A0D2032E8
:10277000292043616C65666163746F7200000A0D05
:1027800020332920426F6D6261000A0D2034292018
:1027900056656E74696C61646F722F426F6D626111
:1027A00000000A0D2035292043616C656661637461
:1027B0006F722F426F6D626100000A0D2036292072
:1027C00041706167617220746F646F000A0D203878
:1027D000292053616C6972000A0A0D205175652029
:1027E00064657365617320616374697661723F200B
:1027F00000000900F5520DE0F6CF2CF0F7CF2DF0D8
:10280000F5509EA8FED7AD6E2CC0F6FF2DC0F7FF89
:10281000F0D712008E0E006E3BC001F03AC002F0FD
:10282000036A015209E102C001F0026A080E005E6B
:10283000015202E1006A08D0D89001BE04D00236ED
:1028400001360006F9D7019E12004750D8B471D066
:10285000006E4B50D8B46DD0002604E3810E0026E4
:1028600068E204D07F0E005E64E363E048C04FF08E
:102870004C504F1A488E4C8E4A504E02F4CF51F0B5
:1028800049504D02F4CF03F0F3CF50F04E02F35015
:102890005126F4505022000E03224A504D02F350AC
:1028A0005126F4505022000E026A032202224850A0
:1028B0004E02F3505026F4500322000E02224850DC
:1028C0004D02F3500326F4500222000E016A012249
:1028D0004A504C02F3505026F4500322000E0222BC
:1028E000012249504C02F3500326F4500222000EFC
:1028F000012248504C02F3500226F4500122002AD3
:1029000001BE05D050360336023601360006000EF1
:1029100050AE0AD0032A02220122015005E10250E2
:1029200003E1035001E1002A4FBE018E4FAE019E2C
:1029300004D0006A016A026A036A12003E50D8B4E9
:10294000A5D04A6E4250D8B4A1D04A5E05E37F0EAE
:102950004A26D8B09BD006D0810E4A5ED8A096D029
:10296000D8B494D04AC000F0016A026A036A496A86
:102970003FC048F0488E40C047F041C046F0190EB5
:102980004A6E4550465E0DE2010E475E0AE2485E21
:1029900008E2495E06E2492A482A472A4550462667
:1029A00028D04450475E12E2010E485E0FE2495EB5
:1029B0000DE2492A482A445047264550462619E345
:1029C000472A17E1482A15E1492A13D043508009C4
:1029D000485E0EE2010E495E0BE2492A435080092F
:1029E000482644504726E9E3482AE7E1492AE5D743
:1029F00003804A2E01D00BD0D89046364736483651
:102A00004936D8900336023601364B36BAD74BA03A
:102A100006D0D8900132023203324B3202D0000687
:102A200035E04BBE1ED0D89046364736483649363C
:102A30004550465E07E2010E475E04E2485E02E250
:102A4000495E1AE34450475E05E2010E485E02E229
:102A5000495E12E343508009485E03E2010E495E7D
:102A60000BE3032A09E1022A07E1012A05E1002A12
:102A70000DE00132023203323FC04AF043504A1A9D
:102A80004AAE02D0018E06D0019E04D0006A016ACF
:102A9000026A036A1200800ED8B2431A486A496A71
:102AA0003FC047F04350471A3E50D8B4DCD0466E82
:102AB000006E4250D8B4E0D0465ED8B481D03DE339
:102AC00043C04CF04C8E44C04BF045C04AF0496ABC
:102AD000D8904C324B324A324932462EF8D747AE64
:102AE00003D04880DDD0489046904888EA6A410E7D
:102AF000E96EE9D0489847BE0AD046A013D04C32C0
:102B00004B324A324932002AD8B4C5D00BD04CBE21
:102B10000CD0D89049364A364B364C360006D8B4DD
:102B2000BAD0F5D7488C6BD0489C3FC047F03FAE39
:102B300002D04C8EA9D04C9EA7D042C046F042C0D5
:102B400000F03E50465E3FC04CF04C8E40C04BF013
:102B500041C04AF0496AD8904C324B324A3249322D
:102B6000462EF8D747AE03D048829AD04892469076
:102B7000488AEA6A450EE96EA6D0489A47BE0AD04E
:102B800046A013D04C324B324A324932002AD8B4D4
:102B900082D00BD04CBE0CD0D89049364A364B363A
:102BA0004C360006D8B477D0F5D7488E28D0489E4A
:102BB00043C047F043AE02D04C8E66D04C9E64D0EA
:102BC00043C04CF04C8E44C04BF045C04AF047AE79
:102BD00004D04C9E488464D04894496A4690EA6A7E
:102BE000410EE96E70D047BE1CD03FC047F046A0F2
:102BF00006D04C324B324A324932002A4CE049AEC0
:102C00000BD04A2A09E14B2A07E14C2A05E14C3254
:102C10004B324A32002A3FE048BC86D748BEC7D76D
:102C20001CD0800E4C1A4CAE04D03AD043C047F0B2
:102C30000AD03FC047F04C5206E14B5204E14A52E1
:102C400002E1006A21D04CBE08D0D89049364A36FD
:102C50004B364C36002EF7D71ED047AE02D04C8EE6
:102C600013D04C9E11D042C000F043C04CF044C081
:102C70004BF045C04AF008D03EC000F03FC04CF0D9
:102C800040C04BF041C04AF04CC001F04BC002F0D4
:102C90004AC003F034D0006A016A026A036A2FD086
:102CA000496A4A1E4B1E4C1E491E492A05E14A2A02
:102CB00003E14B2A01E14C2A48B015D748B256D758
:102CC00048B48AD7B3D7EF504A2605E34B2A03E12D
:102CD0004C2AD8B44680ED52EF504B2603E34C2AE1
:102CE000D8B44680ED52EF50EFBE01D0800A4C269A
:102CF000D8B0468048B8FED648BA3FD774D712003D
:102D00004750B608476E036A48C04BF0488ED890CB
:102D1000483249324A320332023201320032472EFF
:102D2000F6D74BAE0BD0001E011E021E031E002A5A
:102D3000D8B4012AD8B4022AD8B4032A1200D8B2CF
:102D400003D0EA6A4F0EE96E006A016A026A036AFA
:102D50004F6A506A516A526A4E504D104C104B10D7
:102D60002CE0200E536ED8904736483649364A3606
:102D70004F365036513652364E50525C08E14D5067
:102D8000515C05E14C50505C02E14B504F5C0FE34D
:102D90004B504F5E4C50D8A04C3C505E4D50D8A08C
:102DA0004D3C515E4E50D8A04E3C525ED88000360D
:102DB000013602360336532ED6D74FC0EFFF50C030
:102DC000ECFF51C0ECFF52C0ECFF1200E9503F6E27
:102DD0003E50416E19E03DC04AF03CC049F03BC056
:102DE00048F03AC047F04E6A4D6A200E4C6E820E93
:102DF0004B6E2BDD03C03DF002C03CF001C03BF048
:102E000000C03AF0412EE7D73DC04AF03CC049F03F
:102E10003BC048F03AC047F073DF03C03DF002C04A
:102E20003CF001C03BF000C03AF03DAE0DD03F0693
:102E30003F8A3A1E3B1E3C1E3D1E3A2AD8B43B2A0E
:102E4000D8B43C2AD8B43D2A3B0E466E9A0E456E45
:102E5000CA0E446E436A0A0E416E3E50D8B43F2AF1
:102E6000D882EA6A3A0EE96E3DC04AF03CC049F0A9
:102E70003BC048F03AC047F046C04EF045C04DF068
:102E800044C04CF043C04BF05ADF015000520FE1F8
:102E90003E28415C0CE03F500CE00F0B415C01E030
:102EA0003BE23FBE39D03FBC04D0200E30D0200ED4
:102EB0003F163FAA0DD03F9A3E50D8A43F0600507F
:102EC0003F6E2D0E9EA8FED7AD6E3F50006E3F6A3E
:102ED0003E50415C0BE100503F6E2E0E9EA8FED787
:102EE000AD6E3F50006E200E3F16000E300E3FAA12
:102EF0000ED03F9A3E50D8A43F0600503F6E2D0E94
:102F00009EA8FED7AD6E3F50006E3F6A300E002681
:102F100000509EA8FED7AD6ED89246C04AF045C07C
:102F200049F044C048F043C047F04E6A4D6A4C6ACD
:102F30000A0E4B6E04DF03C046F002C045F001C02C
:102F400044F000C043F0412E8BD71200E9503F6E91
:102F50003E50416E19E03DC04AF03CC049F03BC0D4
:102F600048F03AC047F04E6A4D6A200E4C6E820E11
:102F70004B6E6BDC03C03DF002C03CF001C03BF087
:102F800000C03AF0412EE7D73DC04AF03CC049F0BE
:102F90003BC048F03AC047F0B3DE03C03DF002C08A
:102FA0003CF001C03BF000C03AF03DAE0DD03F0612
:102FB0003F8A3A1E3B1E3C1E3D1E3A2AD8B43B2A8D
:102FC000D8B43C2AD8B43D2A3B0E466E9A0E456EC4
:102FD000CA0E446E436A0A0E416E3E50D8B43F2A70
:102FE000D882EA6A3A0EE96E3DC04AF03CC049F028
:102FF0003BC048F03AC047F046C04EF045C04DF0E7
:1030000044C04CF043C04BF09ADE015000520FE137
:103010003E28415C0CE03F500CE00F0B415C01E0AE
:1030200053E23FBE51D03FBC04D0200E42D0200E10
:103030003F163FAA13D03F9A3E50D8A43F060050F7
:103040003F6E196AF2BE198EF29E2D0E5A6E97ECE3
:1030500011F019BEF28E3F50006E3F6A3E50415C47
:1030600011E100503F6E196AF2BE198EF29E2E0ECB
:103070005A6E97EC11F019BEF28E3F50006E200E82
:103080003F16000E300E3FAA14D03F9A3E50D8A4EF
:103090003F0600503F6E196AF2BE198EF29E2D0E49
:1030A0005A6E97EC11F019BEF28E3F50006E3F6AD7
:1030B000300E0026196AF2BE198EF29E00C05AF038
:1030C00097EC11F019BEF28ED89246C04AF045C076
:1030D00049F044C048F043C047F04E6A4D6A4C6A1C
:1030E0000A0E4B6E2CDE03C046F002C045F001C054
:1030F00044F000C043F0412E73D712003BC042F0B1
:103100003F50421A42AE05D0D894D8903BBED880EA
:103110002FD03BC042F03EC043F03A50435E06E041
:1031200042AE26D0D850010AD86E22D03FC043F01C
:103130003B50435E06E042AE1BD0D850010AD86E29
:1031400017D040C043F03C50435E06E042AE10D082
:10315000D850010AD86E0CD041C043F03D50435EB8
:1031600006E042AE05D0D850010AD86E01D0D89002
:103170001200196AF2BE198EF29E640E5B6E79EC33
:1031800010F019BEF28E196AF2BE198EF29E4BEC47
:1031900011F019BEF28E9296899692988998929A19
:1031A000899A000E016EC250C30B0110C26E196ADB
:1031B000F2BE198EF29E0A0E5B6E79EC10F019BE0B
:1031C000F28EC282C2B2FED7C3CF2CF0C4CF2DF094
:1031D000200E006E002EFED700D000002DC03BF068
:1031E0002CC03AF00AEC14F003C03DF002C03CF0F1
:1031F00001C03BF000C03AF003C04AF002C049F001
:1032000001C048F000C047F04E6A4D6A200E4C6E77
:10321000810E4B6E25EC14F003C03DF002C03CF073
:1032200001C03BF000C03AF003C041F002C040F0E2
:1032300001C03FF000C03EF0456AC00E446E7F0EF4
:10324000436E880E426E9EEC14F003C03DF002C047
:103250003CF001C03BF000C03AF003C04AF002C0AD
:1032600049F001C048F000C047F04E6A4D6A480E70
:103270004C6E850E4B6E25EC14F003C03DF002C081
:103280003CF001C03BF000C03AF0D88203C041F0EE
:1032900002C040F001C03FF000C03EF0456A446A01
:1032A000436A810E426E4BEC15F003C031F002C050
:1032B00030F001C02FF000C02EF04C0EF66E260E3E
:1032C000F76E196AF2BE198EF29E080E546E69EC02
:1032D00010F019BEF28E890EE96E31C03DF030C09B
:1032E0003CF02FC03BF02EC03AF0010E3E6E6EDD7A
:1032F0000D0E9EA8FED7AD6E196AF2BE198EF29E13
:10330000010E5B6E5C6E86EC11F019BEF28E5A0EE9
:10331000F66E260EF76E196AF2BE198EF29E080E30
:10332000546EBFEC11F019BEF28E890EE96E31C0F9
:103330003DF030C03CF02FC03BF02EC03AF0010E03
:103340003E6E04DE196AF2BE198EF29E0D0E5A6EA2
:1033500097EC11F019BEF28E040E016EC250C30B31
:103360000110C26E196AF2BE198EF29E0A0E5B6ED1
:1033700079EC10F019BEF28EC282C2B2FED7C4CF71
:1033800003F0C3CF3AF0C4CF3BF00AEC14F003C013
:1033900039F002C038F001C037F000C036F0200E1E
:1033A000006E002EFED700D00000C282C2B2FED74F
:1033B000C4CF03F0C3CF3AF0C4CF3BF00AEC14F013
:1033C00003C035F002C034F001C033F000C032F069
:1033D000200E006E002EFED700D000007B0E4A6E3D
:1033E000140E496EAE0E486E7C0E476E39C04EF01C
:1033F00038C04DF037C04CF036C04BF025EC14F01F
:1034000003C03DF002C03CF001C03BF000C03AF008
:10341000D89203C041F002C040F001C03FF000C0AC
:103420003EF0660E456E446E2B0E436E860E426E67
:103430004BEC15F003C035F002C034F001C033F09E
:1034400000C032F0D88235C041F034C040F033C003
:103450003FF032C03EF0456A446A700E436E820E01
:10346000426E4BEC15F003C035F002C034F001C0E1
:1034700033F000C032F0196AF2BE198EF29E010ECE
:103480005B6E020E5C6E86EC11F019BEF28E680E59
:10349000F66E260EF76E196AF2BE198EF29E090EAE
:1034A000546E69EC10F019BEF28E890EE96E35C0CB
:1034B0003DF034C03CF033C03BF032C03AF0010E76
:1034C0003E6E84DC0D0E9EA8FED7AD6E780EF66EB5
:1034D000260EF76E196AF2BE198EF29E090E546E10
:1034E000BFEC11F019BEF28E890EE96E35C03DF0C9
:1034F00034C03CF033C03BF032C03AF0010E3E6EB7
:1035000025DD196AF2BE198EF29E0D0E5A6E97ECE9
:1035100011F019BEF28E020E3A6E196AF2BE198EC1
:10352000F29EFA0E5B6E79EC10F019BEF28E3A2E16
:10353000F4D735C03DF034C03CF033C03BF032C06E
:103540003AF0416A406A480E3F6E840E3E6ED6DD08
:10355000D8A0BAD1929A898A929689969298899897
:10356000000E016EC250C30B0110C26E196AF2BE8A
:10357000198EF29E0A0E5B6E79EC10F019BEF28E77
:10358000C282C2B2FED7C3CF2CF0C4CF2DF0200E22
:10359000006E002EFED700D000002DC03BF02CC0E6
:1035A0003AF00AEC14F003C03DF002C03CF001C058
:1035B0003BF000C03AF003C04AF002C049F001C03D
:1035C00048F000C047F04E6A4D6A200E4C6E810EE6
:1035D0004B6E25EC14F003C03DF002C03CF001C07E
:1035E0003BF000C03AF003C041F002C040F001C01F
:1035F0003FF000C03EF0456AC00E446E7F0E436E41
:10360000880E426E9EEC14F003C03DF002C03CF008
:1036100001C03BF000C03AF003C04AF002C049F0DC
:1036200001C048F000C047F04E6A4D6A480E4C6E2B
:10363000850E4B6E25EC14F003C031F002C030F063
:1036400001C02FF000C02EF0880EF66E260EF76E29
:10365000196AF2BE198EF29E080E546E69EC10F0D3
:1036600019BEF28E890EE96E31C03DF030C03CF0DB
:103670002FC03BF02EC03AF0010E3E6EE6EC16F085
:103680000D0E9EA8FED7AD6E196AF2BE198EF29E7F
:10369000010E5B6E5C6E86EC11F019BEF28E960E1A
:1036A000F66E260EF76E196AF2BE198EF29E080E9D
:1036B000546EBFEC11F019BEF28E890EE96E31C066
:1036C0003DF030C03CF02FC03BF02EC03AF0010E70
:1036D0003E6E3CDC196AF2BE198EF29E0D0E5A6ED9
:1036E00097EC11F019BEF28E040E016EC250C30B9E
:1036F0000110C26E196AF2BE198EF29E0A0E5B6E3E
:1037000079EC10F019BEF28EC282C2B2FED7C4CFDD
:1037100003F0C3CF3AF0C4CF3BF00AEC14F003C07F
:1037200039F002C038F001C037F000C036F0200E8A
:10373000006E002EFED700D00000C282C2B2FED7BB
:10374000C4CF03F0C3CF3AF0C4CF3BF00AEC14F07F
:1037500003C035F002C034F001C033F000C032F0D5
:10376000200E006E002EFED700D000007B0E4A6EA9
:10377000140E496EAE0E486E7C0E476E39C04EF088
:1037800038C04DF037C04CF036C04BF025EC14F08B
:1037900003C03DF002C03CF001C03BF000C03AF075
:1037A000D89203C041F002C040F001C03FF000C019
:1037B0003EF0660E456E446E2B0E436E860E426ED4
:1037C0004BEC15F003C035F002C034F001C033F00B
:1037D00000C032F0D88235C041F034C040F033C070
:1037E0003FF032C03EF0456A446A700E436E820E6E
:1037F000426E4BEC15F003C035F002C034F001C04E
:1038000033F000C032F0196AF2BE198EF29E010E3A
:103810005B6E020E5C6E86EC11F019BEF28EA40E89
:10382000F66E260EF76E196AF2BE198EF29E090E1A
:10383000546E69EC10F019BEF28E890EE96E35C037
:103840003DF034C03CF033C03BF032C03AF0010EE2
:103850003E6EE6EC16F00D0E9EA8FED7AD6EB40ED1
:10386000F66E260EF76E196AF2BE198EF29E090EDA
:10387000546EBFEC11F019BEF28E890EE96E35C0A0
:103880003DF034C03CF033C03BF032C03AF0010EA2
:103890003E6EA6EC17F0196AF2BE198EF29E0D0E5E
:1038A0005A6E97EC11F019BEF28E020E3A6E196A3A
:1038B000F2BE198EF29EFA0E5B6E79EC10F019BE14
:1038C000F28E3A2EF4D735D63D6A3C6A500E3B6EE6
:1038D000830E3A6E31C041F030C040F02FC03FF04F
:1038E0002EC03EF00BDCD8A0BBD192968986929870
:1038F0008998929A899A000E016EC250C30B0110EA
:10390000C26E196AF2BE198EF29E0A0E5B6E79ECD7
:1039100010F019BEF28EC282C2B2FED7C3CF2CF015
:10392000C4CF2DF0200E006E002EFED700D0000078
:103930002DC03BF02CC03AF00AEC14F003C03DF06F
:1039400002C03CF001C03BF000C03AF003C04AF0B6
:1039500002C049F001C048F000C047F04E6A4D6A0D
:10396000200E4C6E810E4B6E25EC14F003C03DF022
:1039700002C03CF001C03BF000C03AF003C041F08F
:1039800002C040F001C03FF000C03EF0456AC00EEA
:10399000446E7F0E436E880E426E9EEC14F003C0A0
:1039A0003DF002C03CF001C03BF000C03AF003C063
:1039B0004AF002C049F001C048F000C047F04E6A2A
:1039C0004D6A480E4C6E850E4B6E25EC14F003C00C
:1039D00031F002C030F001C02FF000C02EF0C40E54
:1039E000F66E260EF76E196AF2BE198EF29E080E5A
:1039F000546E69EC10F019BEF28E890EE96E31C07A
:103A00003DF030C03CF02FC03BF02EC03AF0010E2C
:103A10003E6EE6EC16F00D0E9EA8FED7AD6E196A4E
:103A2000F2BE198EF29E010E5B6E5C6E86EC11F09A
:103A300019BEF28ED20EF66E260EF76E196AF2BE1F
:103A4000198EF29E080E546EBFEC11F019BEF28E64
:103A5000890EE96E31C03DF030C03CF02FC03BF024
:103A60002EC03AF0010E3E6EA6EC17F0196AF2BEB7
:103A7000198EF29E0D0E5A6E97EC11F019BEF28E51
:103A8000040E016EC250C30B0110C26E196AF2BE61
:103A9000198EF29E0A0E5B6E79EC10F019BEF28E52
:103AA000C282C2B2FED7C4CF03F0C3CF3AF0C4CFB4
:103AB0003BF00AEC14F003C039F002C038F001C04A
:103AC00037F000C036F0200E006E002EFED700D07A
:103AD0000000C282C2B2FED7C4CF03F0C3CF3AF017
:103AE000C4CF3BF00AEC14F003C035F002C034F050
:103AF00001C033F000C032F0200E006E002EFED761
:103B000000D000007B0E4A6E140E496EAE0E486E59
:103B10007C0E476E39C04EF038C04DF037C04CF0C7
:103B200036C04BF025EC14F003C03DF002C03CF071
:103B300001C03BF000C03AF0D89203C041F002C08F
:103B400040F001C03FF000C03EF0660E456E446E8E
:103B50002B0E436E860E426E4BEC15F003C035F013
:103B600002C034F001C033F000C032F0D88235C05A
:103B700041F034C040F033C03FF032C03EF0456AFF
:103B8000446A700E436E820E426E4BEC15F003C019
:103B900035F002C034F001C033F000C032F0196AD1
:103BA000F2BE198EF29E010E5B6E020E5C6E86EC0A
:103BB00011F019BEF28EE00EF66E260EF76E196A3F
:103BC000F2BE198EF29E090E546E69EC10F019BE09
:103BD000F28E890EE96E35C03DF034C03CF033C042
:103BE0003BF032C03AF0010E3E6EE6EC16F00D0EE0
:103BF0009EA8FED7AD6EF00EF66E260EF76E196A11
:103C0000F2BE198EF29E090E546EBFEC11F019BE71
:103C1000F28E890EE96E35C03DF034C03CF033C001
:103C20003BF032C03AF0010E3E6EA6EC17F0196A76
:103C3000F2BE198EF29E0D0E5A6E97EC11F019BE5F
:103C4000F28E020E3A6E196AF2BE198EF29EFA0ECA
:103C50005B6E79EC10F019BEF28E3A2EF4D734D6A2
:103C600031C03DF030C03CF02FC03BF02EC03AF0E8
:103C7000416A406A3F6A830E3E6E7EEC18F0D8A01F
:103C8000BBD19298898892968996929A899A000EC9
:103C9000016EC250C30B0110C26E196AF2BE198EBA
:103CA000F29E0A0E5B6E79EC10F019BEF28EC282A3
:103CB000C2B2FED7C3CF2CF0C4CF2DF0200E006EC1
:103CC000002EFED700D000002DC03BF02CC03AF0F3
:103CD0000AEC14F003C03DF002C03CF001C03BF020
:103CE00000C03AF003C04AF002C049F001C048F0F9
:103CF00000C047F04E6A4D6A200E4C6E810E4B6E2E
:103D000025EC14F003C03DF002C03CF001C03BF0D4
:103D100000C03AF003C041F002C040F001C03FF0E3
:103D200000C03EF0456AC00E446E7F0E436E880EA2
:103D3000426E9EEC14F003C03DF002C03CF001C0A6
:103D40003BF000C03AF003C04AF002C049F001C0A5
:103D500048F000C047F04E6A4D6A480E4C6E850E22
:103D60004B6E25EC14F003C031F002C030F001C0FE
:103D70002FF000C02EF0000EF66E270EF76E196AB7
:103D8000F2BE198EF29E080E546E69EC10F019BE48
:103D9000F28E890EE96E31C03DF030C03CF02FC08C
:103DA0003BF02EC03AF0010E3E6EE6EC16F00D0E22
:103DB0009EA8FED7AD6E196AF2BE198EF29E010E54
:103DC0005B6E5C6E86EC11F019BEF28E0E0EF66E16
:103DD000270EF76E196AF2BE198EF29E080E546E07
:103DE000BFEC11F019BEF28E890EE96E31C03DF0C4
:103DF00030C03CF02FC03BF02EC03AF0010E3E6EBA
:103E0000A6EC17F0196AF2BE198EF29E0D0E5A6ECC
:103E100097EC11F019BEF28E040E016EC250C30B66
:103E20000110C26E196AF2BE198EF29E0A0E5B6E06
:103E300079EC10F019BEF28EC282C2B2FED7C4CFA6
:103E400003F0C3CF3AF0C4CF3BF00AEC14F003C048
:103E500039F002C038F001C037F000C036F0200E53
:103E6000006E002EFED700D00000C282C2B2FED784
:103E7000C4CF03F0C3CF3AF0C4CF3BF00AEC14F048
:103E800003C035F002C034F001C033F000C032F09E
:103E9000200E006E002EFED700D000007B0E4A6E72
:103EA000140E496EAE0E486E7C0E476E39C04EF051
:103EB00038C04DF037C04CF036C04BF025EC14F054
:103EC00003C03DF002C03CF001C03BF000C03AF03E
:103ED000D89203C041F002C040F001C03FF000C0E2
:103EE0003EF0660E456E446E2B0E436E860E426E9D
:103EF0004BEC15F003C035F002C034F001C033F0D4
:103F000000C032F0D88235C041F034C040F033C038
:103F10003FF032C03EF0456A446A700E436E820E36
:103F2000426E4BEC15F003C035F002C034F001C016
:103F300033F000C032F0196AF2BE198EF29E010E03
:103F40005B6E020E5C6E86EC11F019BEF28E1C0EDA
:103F5000F66E270EF76E196AF2BE198EF29E090EE2
:103F6000546E69EC10F019BEF28E890EE96E35C000
:103F70003DF034C03CF033C03BF032C03AF0010EAB
:103F80003E6EE6EC16F00D0E9EA8FED7AD6E2C0E22
:103F9000F66E270EF76E196AF2BE198EF29E090EA2
:103FA000546EBFEC11F019BEF28E890EE96E35C069
:103FB0003DF034C03CF033C03BF032C03AF0010E6B
:103FC0003E6EA6EC17F0196AF2BE198EF29E0D0E27
:103FD0005A6E97EC11F019BEF28E020E3A6E196A03
:103FE000F2BE198EF29EFA0E5B6E79EC10F019BEDD
:103FF000F28E3A2EF4D734D635EF21F0000E9EBA69
:10400000010E000A3AE03C0EF66E270EF76EF9EC50
:1040100013F05A0EF66E270EF76EF9EC13F06C0ED5
:10402000F66E270EF76EF9EC13F07E0EF66E270E85
:10403000F76EF9EC13F08A0EF66E270EF76EF9ECB8
:1040400013F0A20EF66E270EF76EF9EC13F0BA0E0F
:10405000F66E270EF76EF9EC13F0CC0EF66E270E07
:10406000F76EF9EC13F0D80EF66E270EF76EF9EC3A
:1040700013F09EAAFED7AECF2BF0310E2B5CF80FBB
:104080002EE2080F72EF20F0929689869298899816
:10409000929A899A24D09298898892968996929A2F
:1040A000899A1DD0929A898A92968996929889982F
:1040B00016D092968986929A898A929A899A0FD076
:1040C00092988988929A898A9296899608D092962F
:1040D000899692988998929A899A01D001D08ED720
:1040E00048EF21F0E824F76AF736FF0FF66E400E2E
:1040F000F7220A00F550FA6E0800F550F96E884074
:104100009640A440B240C040CE40DE40DC40F86A59
:10411000D09E078EB886080EAF6E020EB06EA60E49
:10412000AC6E900EAB6E246A256A266A27682868F2
:104130002968370E2A6E300E2B6EC150C00B0F0946
:10414000C16E070EB46E1B6A640E1A6E070E656FA1
:10415000980E646F676B666B1C6A1D6A000E956E25
:10416000F00E936E946EF19EC80EF212830ED56E11
:104170003C0ED76EB00ED66EF19CF288F08693940A
:104180008A9493968A9693988A98C050C00B010996
:10419000C06EC08EC280C150C00B0D09C16EC05030
:1041A000C00B0709C06EC08EC280196AF2BE198E9C
:1041B000F29E640E5B6E79EC10F019BEF28E280E42
:1041C000F66E250EF76EF9EC13F03E0EF66E250E28
:1041D000F76EF9EC13F05A0EF66E250EF76EF9EC49
:1041E00013F0860EF66E250EF76EF9EC13F09C0EAA
:1041F000F66E250EF76EF9EC13F0000E9EBA010E66
:10420000000A22E0BA0EF66E250EF76EF9EC13F0F6
:10421000CE0EF66E250EF76EF9EC13F0EC0EF66E80
:10422000250EF76EF9EC13F0180EF66E260EF76EEB
:10423000F9EC13F02E0EF66E260EF76EF9EC13F075
:104240009EAAFED7AECF2BF02B50310A05E0030A11
:1042500017E0010A28E036D0F29A310E036E720E92
:10426000226E03C023F0B9EF18F0196AF2BE198E5E
:10427000F29EC80E5B6E79EC10F019BEF28E22D061
:10428000F29A3F0E036EFC0E226E03C023F0B6D6E8
:10429000196AF2BE198EF29EC80E5B6E79EC10F0B0
:1042A00019BEF28E0FD0F28A020E2C6E196AF2BE7F
:1042B000198EF29EFA0E5B6E79EC10F019BEF28E3A
:0842C0002C2EF4D79AD703005D
:020000040030CA
:0E0000003FCC3E1E0087A1000FC00FE00F4056
:00000001FF
;PIC18F4550
;CRC=7CEB  CREATED="06-dic.-23 10:58"
